:100000000C945B000C9483000C9483000C9483008C
:100010000C9483000C9483000C9483000C94830054
:100020000C9483000C9483000C9483000C94830044
:100030000C9483000C9483000C9483000C94830034
:100040000C948A020C9483000C9496040C94830004
:100050000C9483000C9483000C9483000C94830014
:100060000C9483000C948300000024272A000025B0
:10007000282B000023262904040404040404040299
:100080000202020202030303030303010204081035
:100090002040800102040810200102040810200002
:1000A0000000070002010000030406000000000039
:1000B00000000000710211241FBECFEFD4E0DEBFAC
:1000C000CDBF11E0A0E0B1E0ECEBFAE002C005909A
:1000D0000D92A836B107D9F712E0A8E6B1E001C049
:1000E0001D92A430B107E1F710E0C6EBD0E004C0E8
:1000F0002297FE010E945805C43BD107C9F70E9410
:100100006A020C945C050C94000061E0809100018F
:100110000E94670361E0809102010E94670361E031
:10012000809104010E94670361E0809106010E94B2
:10013000670361E0809108010E94670361E080919C
:100140000A010E94670361E080910C010E9467032D
:1001500061E0809117010E94670381E0809368014C
:100160008093690110926A0110926B0110926C01E8
:1001700010926D0140E855E260E070E086E791E0A2
:100180000E94850260E080910C010E948503089521
:10019000AF92BF92CF92DF92EF92FF920F931F9395
:1001A000CF93DF93EC01880F991F5C01CC24B7FC3F
:1001B000C094DC2CEE24FF24870114C061E0809100
:1001C00017010E948503CE010E941F0360E0809109
:1001D00017010E948503CE010E941F03EA0CFB1C3D
:1001E0000C1D1D1D60911001709111018091120173
:1001F0009091130128EE33E040E050E00E94D304D8
:10020000E616F70608071907CCF2DF91CF911F9188
:100210000F91FF90EF90DF90CF90BF90AF90089537
:10022000BF92CF92DF92EF92FF920F931F93DF93D3
:10023000CF93CDB7DEB768970FB6F894DEBF0FBE89
:10024000CDBFB82EDE011196E9E5F1E088E001901E
:100250000D928150E1F7DE011996E9E4F1E080E1C9
:1002600001900D928150E1F780E2B81659F4609147
:1002700010017091110180911201909113010E945F
:10028000F50219C07E010894E11CF11C8E01075F84
:100290001F4F6801F70180818B1529F4F8018081D7
:1002A00091810E94C8000894E11CF11C0E5F1F4F51
:1002B000EC14FD0479F768960FB6F894DEBF0FBE14
:1002C000CDBFCF91DF911F910F91FF90EF90DF9005
:1002D000CF90BF90089586E791E00E94820282301D
:1002E00098F186E791E00E947F02809314011092BA
:1002F000690110926A0110926B0110926C011092C8
:100300006D0191E090936801E9E6F1E090E08E0FD5
:100310009F1F21E001C02193E817F907E1F786E765
:1003200091E00E947F0243E0880F991F4A95E1F710
:10033000AA2797FDA095BA2F8093100190931101E1
:10034000A0931201B09313010E94E7022091700163
:10035000309171014091720150917301621B730BD6
:10036000840B950B209110013091110140911201E5
:1003700050911301261737074807590708F063C043
:100380000E94E70260937001709371018093720183
:100390009093730180916E0190916F01892B39F4D4
:1003A00081E090E090936F0180936E0104C0109201
:1003B0006F0110926E0180916801882319F060919D
:1003C0006E0101C060E0809100010E948503809170
:1003D0006901882319F060916E0101C060E080918D
:1003E00004010E94850380916A01882319F06091BD
:1003F0006E0101C060E0809106010E94850380913A
:100400006B01882319F060916E0101C060E080915A
:1004100002010E94850380916C01882319F060918C
:100420006E0101C060E0809108010E948503809107
:100430006D01882319F060916E0101C060E0809128
:100440000A010E9485038091740190917501892BA6
:10045000D1F480911501909116016091190170916C
:100460001A0101960E94F204FC01909316018093F8
:100470001501EE0FFF1FE55DFE4F80819181909386
:10048000750180937401E0911501F0911601E55E0C
:10049000FE4F80810E94100180917401909175013E
:1004A00001979093750180937401892B91F4609169
:1004B00010017091110180911201909113012AE0B5
:1004C00030E040E050E00E940505CA01B9010E94F9
:1004D000F50208950E942D030E9485000E946B0181
:1004E000FDCF85E691E090937701809376010895A2
:1004F000862F0E94550408950E948D0408950E943D
:100500006E0408950E945D040895CB01BA010E9413
:100510001C0408951F920F920FB60F9211242F936F
:100520008F939F93AF93BF938091780190917901BE
:10053000A0917A01B0917B018050904CAF4FBF4F9A
:100540008093780190937901A0937A01B0937B0115
:1005500027C08091780190917901A0917A01B091A2
:100560007B0180589E43A040B040809378019093D7
:100570007901A0937A01B0937B0180917C019091E5
:100580007D01A0917E01B0917F010196A11DB11D59
:1005900080937C0190937D01A0937E01B0937F01B5
:1005A0008091780190917901A0917A01B0917B01BD
:1005B00081589E43A040B04060F6BF91AF919F919B
:1005C0008F912F910F900FBE0F901F9018958FB79E
:1005D000F89420917C0130917D0140917E015091F1
:1005E0007F018FBFB901CA010895EF92FF920F9367
:1005F0001F937B018C018FB7F89440917C0150913F
:100600007D0160917E0170917F018FBF2FB7F894BB
:1006100080917C0190917D01A0917E01B0917F013C
:100620002FBF841B950BA60BB70B8E159F05A0073C
:10063000B10760F31F910F91FF90EF90089501971C
:1006400059F0FC01EE0FFF1FEE0FFF1F32978FB71F
:10065000F8943197F1F78FBF0895789484B582604C
:1006600084BD84B5816084BD85B5826085BD85B556
:10067000816085BDEEE6F0E0808181608083E1E805
:10068000F0E0808182608083808181608083E0E807
:10069000F0E0808181608083E1EBF0E08081846024
:1006A0008083E0EBF0E0808181608083EAE7F0E026
:1006B000808184608083808182608083808181608A
:1006C00080838081806880831092C1000895282FE4
:1006D00030E0C90185579F4FFC01949129583F4F45
:1006E000F9018491882381F0E82FF0E0E859FF4F69
:1006F000E491F0E0662329F480819095892380833A
:1007000008958081892B80830895482F50E0CA0185
:1007100081569F4FFC012491CA0185579F4FFC01D0
:10072000949149585F4FFA0134913323C1F1222348
:1007300031F1233021F4809180008F7705C024307F
:1007400031F4809180008F7D8093800018C021302B
:1007500019F484B58F7704C0223021F484B58F7DDD
:1007600084BD0DC0263021F48091B0008F7705C084
:10077000273029F48091B0008F7D8093B000E32F63
:10078000F0E0E359FF4FE491F0E0662329F4808123
:1007900090958923808308958081892B8083089593
:1007A000482F50E0CA0181569F4FFC012491CA0195
:1007B00085579F4FFC01949149585F4FFA0134913E
:1007C000332319F420E030E035C0222331F1233007
:1007D00021F4809180008F7705C0243031F480911E
:1007E00080008F7D8093800018C0213019F484B57B
:1007F0008F7704C0223021F484B58F7D84BD0DC075
:10080000263021F48091B0008F7705C0273029F47D
:100810008091B0008F7D8093B000E32FF0E0EE5820
:10082000FF4FE491F0E0808120E030E0892311F077
:1008300021E030E0C9010895EF92FF920F931F93DA
:100840007B018C0122E030E040E050E00E94050591
:10085000205C3D4B404F5F4FCA01B901A801970191
:100860000E940505C901DA010197A109B109292FE3
:100870003A2F4B2F552747FD5A950196A11DB11DC3
:100880002093C50081508093C400E1ECF0E08081AA
:10089000806180838081886080838081806880839C
:1008A0001F910F91FF90EF900895982F8091C000B5
:1008B00085FFFCCF9093C6000895809180019091B0
:1008C000810180589F4F2091820130918301821BCA
:1008D000930B60E870E00E94F20408954091820159
:1008E0005091830180918001909181018417950737
:1008F00019F42FEF3FEF0FC0FA01EC57FE4F2081A4
:10090000CA01019660E870E00E94F20490938301AE
:100910008093820130E0C901089580918201909115
:100920008301909381018093800108951F920F921B
:100930000FB60F9211242F933F934F935F936F93B2
:100940007F938F939F93AF93BF93EF93FF934091C8
:10095000C600E0918001F0918101CF01019660E82D
:1009600070E00E94F2049C018091820190918301C9
:100970002817390739F0EC57FE4F40833093810137
:1009800020938001FF91EF91BF91AF919F918F9143
:100990007F916F915F914F913F912F910F900FBE7B
:1009A0000F901F901895629FD001739FF001829F56
:1009B000E00DF11D649FE00DF11D929FF00D839FEE
:1009C000F00D749FF00D659FF00D9927729FB00D8B
:1009D000E11DF91F639FB00DE11DF91FBD01CF019E
:1009E0001124089597FB092E07260AD077FD04D01D
:1009F00027D006D000201AF4709561957F4F089596
:100A0000F6F7909581959F4F089597FB092E05263F
:100A10000ED057FD04D028D00AD0001C38F45095D1
:100A20004095309521953F4F4F4F5F4F0895F6F712
:100A300090958095709561957F4F8F4F9F4F08954A
:100A4000AA1BBB1B51E107C0AA1FBB1FA617B707F4
:100A500010F0A61BB70B881F991F5A95A9F7809510
:100A60009095BC01CD010895A1E21A2EAA1BBB1BD3
:100A7000FD010DC0AA1FBB1FEE1FFF1FA217B3076A
:100A8000E407F50720F0A21BB30BE40BF50B661F80
:100A9000771F881F991F1A9469F760957095809544
:100AA00090959B01AC01BD01CF010895EE0FFF1F92
:0C0AB0000590F491E02D0994F894FFCF1C
:100ABC000D000A000B00080009000C0007000100E3
:100ACC00C800000001FFFF05000F0063636767614A
:100ADC00616766666565646463200001000100015E
:100AEC0000010001000100020001000100010001F1
:100AFC000001000100020004007B07A406EF05982A
:100B0C0005FB047004F603BC0363646566676162ED
:080B1C00430000000078020014
:00000001FF
